{
  "contractName": "RBACSC",
  "abi": [
    {
      "constant": true,
      "inputs": [],
      "name": "status",
      "outputs": [
        {
          "name": "",
          "type": "bool"
        }
      ],
      "payable": false,
      "stateMutability": "view",
      "type": "function",
      "signature": "0x200d2ed2"
    },
    {
      "constant": true,
      "inputs": [
        {
          "name": "",
          "type": "uint256"
        }
      ],
      "name": "users",
      "outputs": [
        {
          "name": "user",
          "type": "address"
        },
        {
          "name": "role",
          "type": "string"
        },
        {
          "name": "notes",
          "type": "string"
        },
        {
          "name": "userSince",
          "type": "uint256"
        }
      ],
      "payable": false,
      "stateMutability": "view",
      "type": "function",
      "signature": "0x365b98b2"
    },
    {
      "constant": true,
      "inputs": [
        {
          "name": "",
          "type": "address"
        }
      ],
      "name": "userId",
      "outputs": [
        {
          "name": "",
          "type": "uint256"
        }
      ],
      "payable": false,
      "stateMutability": "view",
      "type": "function",
      "signature": "0x376fe102"
    },
    {
      "constant": true,
      "inputs": [
        {
          "name": "",
          "type": "uint256"
        }
      ],
      "name": "endorsedUsers",
      "outputs": [
        {
          "name": "endorser",
          "type": "address"
        },
        {
          "name": "endorsee",
          "type": "address"
        },
        {
          "name": "notes",
          "type": "string"
        },
        {
          "name": "endorseeSince",
          "type": "uint256"
        }
      ],
      "payable": false,
      "stateMutability": "view",
      "type": "function",
      "signature": "0x43d7430d"
    },
    {
      "constant": true,
      "inputs": [],
      "name": "numberOfEndorsees",
      "outputs": [
        {
          "name": "",
          "type": "uint256"
        }
      ],
      "payable": false,
      "stateMutability": "view",
      "type": "function",
      "signature": "0x4ecf55d2"
    },
    {
      "constant": true,
      "inputs": [],
      "name": "organizationName",
      "outputs": [
        {
          "name": "",
          "type": "string"
        }
      ],
      "payable": false,
      "stateMutability": "view",
      "type": "function",
      "signature": "0x6c435494"
    },
    {
      "constant": true,
      "inputs": [],
      "name": "numberOfUsers",
      "outputs": [
        {
          "name": "",
          "type": "uint256"
        }
      ],
      "payable": false,
      "stateMutability": "view",
      "type": "function",
      "signature": "0x75ce46a7"
    },
    {
      "constant": true,
      "inputs": [],
      "name": "owner",
      "outputs": [
        {
          "name": "",
          "type": "address"
        }
      ],
      "payable": false,
      "stateMutability": "view",
      "type": "function",
      "signature": "0x8da5cb5b"
    },
    {
      "constant": true,
      "inputs": [
        {
          "name": "",
          "type": "address"
        }
      ],
      "name": "endorsedUserId",
      "outputs": [
        {
          "name": "",
          "type": "uint256"
        }
      ],
      "payable": false,
      "stateMutability": "view",
      "type": "function",
      "signature": "0xed4ac05c"
    },
    {
      "inputs": [
        {
          "name": "enterOrganizationName",
          "type": "string"
        }
      ],
      "payable": false,
      "stateMutability": "nonpayable",
      "type": "constructor",
      "signature": "constructor"
    },
    {
      "anonymous": false,
      "inputs": [
        {
          "indexed": false,
          "name": "UserAddress",
          "type": "address"
        },
        {
          "indexed": false,
          "name": "UserRole",
          "type": "string"
        },
        {
          "indexed": false,
          "name": "UserNotes",
          "type": "string"
        }
      ],
      "name": "UserAdded",
      "type": "event",
      "signature": "0x8eab1db142a914aff8b515eedb9177bd7effaef6d714c41e30bdf15206778607"
    },
    {
      "anonymous": false,
      "inputs": [
        {
          "indexed": false,
          "name": "UserAddress",
          "type": "address"
        },
        {
          "indexed": false,
          "name": "UserRole",
          "type": "string"
        },
        {
          "indexed": false,
          "name": "UserNotes",
          "type": "string"
        }
      ],
      "name": "UserUpdated",
      "type": "event",
      "signature": "0xe5d18d6612696bff7df1db8015eac613241613297fa2ba2783993e4fd0e76f3d"
    },
    {
      "anonymous": false,
      "inputs": [
        {
          "indexed": false,
          "name": "UserAddress",
          "type": "address"
        }
      ],
      "name": "UserRemoved",
      "type": "event",
      "signature": "0xe9dce8c992623ce791725b21e857e33248d1f190a25b5168313420eebdaae99d"
    },
    {
      "anonymous": false,
      "inputs": [
        {
          "indexed": false,
          "name": "Endorser",
          "type": "address"
        },
        {
          "indexed": false,
          "name": "Endorsee",
          "type": "address"
        }
      ],
      "name": "UserEndorsed",
      "type": "event",
      "signature": "0x84ff9f6925f30582668c806da04f9b9acb3650e9a2a8dbeba7213843dde403c1"
    },
    {
      "anonymous": false,
      "inputs": [
        {
          "indexed": false,
          "name": "UserAddress",
          "type": "address"
        }
      ],
      "name": "EndorseeRemoved",
      "type": "event",
      "signature": "0x87ce36a58793d4fe6f059285a61145211a8a9528f1a495be779bd0befd70faca"
    },
    {
      "anonymous": false,
      "inputs": [
        {
          "indexed": false,
          "name": "Status",
          "type": "string"
        }
      ],
      "name": "StatusChanged",
      "type": "event",
      "signature": "0xea6f92f49f3f6b3faa4cb02c9366b537e5c42ee43006fb8f18fb7a3ecb6c6a92"
    },
    {
      "constant": false,
      "inputs": [
        {
          "name": "userAddress",
          "type": "address"
        },
        {
          "name": "userRole",
          "type": "string"
        },
        {
          "name": "userNotes",
          "type": "string"
        }
      ],
      "name": "addUser",
      "outputs": [],
      "payable": false,
      "stateMutability": "nonpayable",
      "type": "function",
      "signature": "0xd7554a68"
    },
    {
      "constant": false,
      "inputs": [
        {
          "name": "endorseeAddress",
          "type": "address"
        },
        {
          "name": "endorseNotes",
          "type": "string"
        }
      ],
      "name": "addEndorsee",
      "outputs": [],
      "payable": false,
      "stateMutability": "nonpayable",
      "type": "function",
      "signature": "0x546c9eae"
    },
    {
      "constant": false,
      "inputs": [
        {
          "name": "userAddress",
          "type": "address"
        }
      ],
      "name": "removeUser",
      "outputs": [],
      "payable": false,
      "stateMutability": "nonpayable",
      "type": "function",
      "signature": "0x98575188"
    },
    {
      "constant": false,
      "inputs": [
        {
          "name": "endorseeAddress",
          "type": "address"
        }
      ],
      "name": "removeEndorsee",
      "outputs": [],
      "payable": false,
      "stateMutability": "nonpayable",
      "type": "function",
      "signature": "0x32b7e70e"
    },
    {
      "constant": false,
      "inputs": [
        {
          "name": "deactivate",
          "type": "bool"
        }
      ],
      "name": "changeStatus",
      "outputs": [],
      "payable": false,
      "stateMutability": "nonpayable",
      "type": "function",
      "signature": "0x9b3de49b"
    },
    {
      "constant": true,
      "inputs": [],
      "name": "getNumberOfUsers",
      "outputs": [
        {
          "name": "",
          "type": "uint256"
        }
      ],
      "payable": false,
      "stateMutability": "view",
      "type": "function",
      "signature": "0x4d009288"
    },
    {
      "constant": true,
      "inputs": [],
      "name": "getNumberOfEndorsees",
      "outputs": [
        {
          "name": "",
          "type": "uint256"
        }
      ],
      "payable": false,
      "stateMutability": "view",
      "type": "function",
      "signature": "0x9de5459e"
    }
  ],
  "bytecode": "0x60806040523480156200001157600080fd5b5060405162001faf38038062001faf833981018060405260208110156200003757600080fd5b8101908080516401000000008111156200005057600080fd5b820160208101848111156200006457600080fd5b81516401000000008111828201871017156200007f57600080fd5b50506000805460ff1961010033810261010060a860020a03199093169290921716600117808355600292909255604080516060810182526023815260008051602062001f8f8339815191526020808301919091527f6163740000000000000000000000000000000000000000000000000000000000828401528251808401909352601a83527f4f6e6c79206f6e652077686f2063616e20616464207573657273000000000000908301529396506200014e95509104600160a060020a03169250640100000000620001e1810204565b8051620001639060019060208401906200081d565b506000600381905554604080516060810182526023815260008051602062001f8f83398151915260208201527f616374000000000000000000000000000000000000000000000000000000000091810191909152620001da916101009004600160a060020a031690640100000000620005e3810204565b50620008c2565b6000546101009004600160a060020a03163314620001fe57600080fd5b6000805460ff19166001179055600160a060020a038316600090815260046020526040902054801515620004165750600254600160a060020a038416600081815260046020908152604091829020849055815160808101835292835282018590528101839052426060820152600682606381106200027857fe5b8251600491909102919091018054600160a060020a031916600160a060020a039092169190911781556020808301518051620002bb92600185019201906200081d565b5060408201518051620002d99160028401916020909101906200081d565b50606082015181600301559050507f8eab1db142a914aff8b515eedb9177bd7effaef6d714c41e30bdf152067786078484846040518084600160a060020a0316600160a060020a031681526020018060200180602001838103835285818151815260200191508051906020019080838360005b83811015620003665781810151838201526020016200034c565b50505050905090810190601f168015620003945780820380516001836020036101000a031916815260200191505b50838103825284518152845160209182019186019080838360005b83811015620003c9578181015183820152602001620003af565b50505050905090810190601f168015620003f75780820380516001836020036101000a031916815260200191505b509550505050505060405180910390a1600280546001019055620005dd565b60408051608081018252600160a060020a038616815260208101859052908101839052426060820152600682606381106200044d57fe5b8251600491909102919091018054600160a060020a031916600160a060020a0390921691909117815560208083015180516200049092600185019201906200081d565b5060408201518051620004ae9160028401916020909101906200081d565b50606082015181600301559050507fe5d18d6612696bff7df1db8015eac613241613297fa2ba2783993e4fd0e76f3d8484846040518084600160a060020a0316600160a060020a031681526020018060200180602001838103835285818151815260200191508051906020019080838360005b838110156200053b57818101518382015260200162000521565b50505050905090810190601f168015620005695780820380516001836020036101000a031916815260200191505b50838103825284518152845160209182019186019080838360005b838110156200059e57818101518382015260200162000584565b50505050905090810190601f168015620005cc5780820380516001836020036101000a031916815260200191505b509550505050505060405180910390a15b50505050565b336000908152600460205260409020541515806200061057506000546101009004600160a060020a031633145b15156200061c57600080fd5b6000805460ff19166001179055600160a060020a038216600090815260056020526040902054801515620007445750600354600160a060020a038316600081815260056020908152604091829020849055815160808101835233815290810192909252810183905242606082015261019282606381106200069957fe5b8251600491909102919091018054600160a060020a0319908116600160a060020a039384161782556020808501516001840180549093169416939093179055604083015180519192620006f5926002850192909101906200081d565b506060919091015160039091015560408051338152600160a060020a0385166020820152815160008051602062001f6f833981519152929181900390910190a160038054600101905562000818565b60408051608081018252338152600160a060020a038516602082015290810183905242606082015261019282606381106200077b57fe5b8251600491909102919091018054600160a060020a0319908116600160a060020a039384161782556020808501516001840180549093169416939093179055604083015180519192620007d7926002850192909101906200081d565b506060919091015160039091015560408051338152600160a060020a0385166020820152815160008051602062001f6f833981519152929181900390910190a15b505050565b828054600181600116156101000203166002900490600052602060002090601f016020900481019282601f106200086057805160ff191683800117855562000890565b8280016001018555821562000890579182015b828111156200089057825182559160200191906001019062000873565b506200089e929150620008a2565b5090565b620008bf91905b808211156200089e5760008155600101620008a9565b90565b61169d80620008d26000396000f3fe6080604052600436106100e55763ffffffff7c0100000000000000000000000000000000000000000000000000000000600035041663200d2ed281146100ea57806332b7e70e14610113578063365b98b214610148578063376fe1021461027057806343d7430d146102b55780634d009288146103905780634ecf55d2146103a5578063546c9eae146103ba5780636c4354941461047d57806375ce46a7146105075780638da5cb5b1461051c578063985751881461054d5780639b3de49b146105805780639de5459e146105ac578063d7554a68146105c1578063ed4ac05c1461070b575b600080fd5b3480156100f657600080fd5b506100ff61073e565b604080519115158252519081900360200190f35b34801561011f57600080fd5b506101466004803603602081101561013657600080fd5b5035600160a060020a0316610747565b005b34801561015457600080fd5b506101726004803603602081101561016b57600080fd5b5035610993565b6040518085600160a060020a0316600160a060020a031681526020018060200180602001848152602001838103835286818151815260200191508051906020019080838360005b838110156101d15781810151838201526020016101b9565b50505050905090810190601f1680156101fe5780820380516001836020036101000a031916815260200191505b50838103825285518152855160209182019187019080838360005b83811015610231578181015183820152602001610219565b50505050905090810190601f16801561025e5780820380516001836020036101000a031916815260200191505b50965050505050505060405180910390f35b34801561027c57600080fd5b506102a36004803603602081101561029357600080fd5b5035600160a060020a0316610ae1565b60408051918252519081900360200190f35b3480156102c157600080fd5b506102df600480360360208110156102d857600080fd5b5035610af3565b6040518085600160a060020a0316600160a060020a0316815260200184600160a060020a0316600160a060020a0316815260200180602001838152602001828103825284818151815260200191508051906020019080838360005b8381101561035257818101518382015260200161033a565b50505050905090810190601f16801561037f5780820380516001836020036101000a031916815260200191505b509550505050505060405180910390f35b34801561039c57600080fd5b506102a3610b7d565b3480156103b157600080fd5b506102a3610b88565b3480156103c657600080fd5b50610146600480360360408110156103dd57600080fd5b600160a060020a03823516919081019060408101602082013564010000000081111561040857600080fd5b82018360208201111561041a57600080fd5b8035906020019184600183028401116401000000008311171561043c57600080fd5b91908080601f016020809104026020016040519081016040528093929190818152602001838380828437600092019190915250929550610b8e945050505050565b34801561048957600080fd5b50610492610de0565b6040805160208082528351818301528351919283929083019185019080838360005b838110156104cc5781810151838201526020016104b4565b50505050905090810190601f1680156104f95780820380516001836020036101000a031916815260200191505b509250505060405180910390f35b34801561051357600080fd5b506102a3610e6d565b34801561052857600080fd5b50610531610e73565b60408051600160a060020a039092168252519081900360200190f35b34801561055957600080fd5b506101466004803603602081101561057057600080fd5b5035600160a060020a0316610e87565b34801561058c57600080fd5b50610146600480360360208110156105a357600080fd5b50351515611088565b3480156105b857600080fd5b506102a3611118565b3480156105cd57600080fd5b50610146600480360360608110156105e457600080fd5b600160a060020a03823516919081019060408101602082013564010000000081111561060f57600080fd5b82018360208201111561062157600080fd5b8035906020019184600183028401116401000000008311171561064357600080fd5b91908080601f016020809104026020016040519081016040528093929190818152602001838380828437600092019190915250929594936020810193503591505064010000000081111561069657600080fd5b8201836020820111156106a857600080fd5b803590602001918460018302840111640100000000831117156106ca57600080fd5b91908080601f016020809104026020016040519081016040528093929190818152602001838380828437600092019190915250929550611122945050505050565b34801561071757600080fd5b506102a36004803603602081101561072e57600080fd5b5035600160a060020a031661150b565b60005460ff1681565b3360009081526004602052604090205415158061077357506000546101009004600160a060020a031633145b151561077e57600080fd5b6000805460ff19166001179055600160a060020a03811660009081526005602052604090205415156107af57600080fd5b600160a060020a03811660009081526005602052604081205461019290606381106107d657fe5b600402018054909150600160a060020a031633146107f357600080fd5b600160a060020a0382166000908152600560205260408120545b6001600354038110156108e357610192600182016063811061082b57fe5b60040201610192826063811061083d57fe5b8254600491909102919091018054600160a060020a0319908116600160a060020a039384161782556001808501548184018054909316941693909317905560028084018054929361089f9383860193918116156101000260001901160461151d565b5060039182015491015561019281606381106108b757fe5b60040201600190810154600160a060020a0316600081815260056020526040902083905592500161080d565b506003546101929060001901606381106108f957fe5b600402018054600160a060020a031990811682556001820180549091169055600061092760028301826115a2565b5060006003919091015560408051600160a060020a038516815290517f87ce36a58793d4fe6f059285a61145211a8a9528f1a495be779bd0befd70faca9181900360200190a1505060038054600019019055600160a060020a0316600090815260056020526040812055565b600681606381106109a057fe5b60040201805460018083018054604080516020601f600260001997861615610100029790970190941695909504928301859004850281018501909152818152600160a060020a0390941695509091830182828015610a3f5780601f10610a1457610100808354040283529160200191610a3f565b820191906000526020600020905b815481529060010190602001808311610a2257829003601f168201915b50505060028085018054604080516020601f6000196101006001871615020190941695909504928301859004850281018501909152818152959695945090925090830182828015610ad15780601f10610aa657610100808354040283529160200191610ad1565b820191906000526020600020905b815481529060010190602001808311610ab457829003601f168201915b5050505050908060030154905084565b60046020526000908152604090205481565b6101928160638110610b0157fe5b6004020180546001808301546002808501805460408051602061010097841615979097026000190190921693909304601f8101869004860282018601909352828152600160a060020a03958616975094909216949392830182828015610ad15780601f10610aa657610100808354040283529160200191610ad1565b600254600019015b90565b60035481565b33600090815260046020526040902054151580610bba57506000546101009004600160a060020a031633145b1515610bc557600080fd5b6000805460ff19166001179055600160a060020a038216600090815260056020526040902054801515610cf95750600354600160a060020a03831660008181526005602090815260409182902084905581516080810183523381529081019290925281018390524260608201526101928260638110610c4057fe5b8251600491909102919091018054600160a060020a0319908116600160a060020a039384161782556020808501516001840180549093169416939093179055604083015180519192610c9a926002850192909101906115e9565b506060919091015160039091015560408051338152600160a060020a038516602082015281517f84ff9f6925f30582668c806da04f9b9acb3650e9a2a8dbeba7213843dde403c1929181900390910190a1600380546001019055610ddb565b60408051608081018252338152600160a060020a03851660208201529081018390524260608201526101928260638110610d2f57fe5b8251600491909102919091018054600160a060020a0319908116600160a060020a039384161782556020808501516001840180549093169416939093179055604083015180519192610d89926002850192909101906115e9565b506060919091015160039091015560408051338152600160a060020a038516602082015281517f84ff9f6925f30582668c806da04f9b9acb3650e9a2a8dbeba7213843dde403c1929181900390910190a15b505050565b60018054604080516020600284861615610100026000190190941693909304601f81018490048402820184019092528181529291830182828015610e655780601f10610e3a57610100808354040283529160200191610e65565b820191906000526020600020905b815481529060010190602001808311610e4857829003601f168201915b505050505081565b60025481565b6000546101009004600160a060020a031681565b6000546101009004600160a060020a03163314610ea357600080fd5b6000805460ff19166001179055600160a060020a0381166000908152600460205260409020541515610ed457600080fd5b600160a060020a0381166000908152600460205260408120545b600160025403811015610fd95760066001820160638110610f0b57fe5b6004020160068260638110610f1c57fe5b8254600491909102919091018054600160a060020a031916600160a060020a0390921691909117815560018083018054610f6d9280850192916002600019928216156101000292909201160461151d565b5060028281018054610f9292848101929160001961010060018316150201160461151d565b5060039182015491015560068160638110610fa957fe5b60049081029190910154600160a060020a0316600081815260209290925260409091208290559150600101610eee565b506002546006906000190160638110610fee57fe5b600402018054600160a060020a0319168155600061100f60018301826115a2565b61101d6002830160006115a2565b5060006003919091015560408051600160a060020a038416815290517fe9dce8c992623ce791725b21e857e33248d1f190a25b5168313420eebdaae99d9181900360200190a15060028054600019019055600160a060020a0316600090815260046020526040812055565b6000546101009004600160a060020a031633146110a457600080fd5b80156110b5576000805460ff191690555b604080516020808252601a908201527f536d61727420436f6e74726163742044656163746976617465640000000000008183015290517fea6f92f49f3f6b3faa4cb02c9366b537e5c42ee43006fb8f18fb7a3ecb6c6a929181900360600190a150565b6003546000190190565b6000546101009004600160a060020a0316331461113e57600080fd5b6000805460ff19166001179055600160a060020a0383166000908152600460205260409020548015156113495750600254600160a060020a038416600081815260046020908152604091829020849055815160808101835292835282018590528101839052426060820152600682606381106111b657fe5b8251600491909102919091018054600160a060020a031916600160a060020a0390921691909117815560208083015180516111f792600185019201906115e9565b50604082015180516112139160028401916020909101906115e9565b50606082015181600301559050507f8eab1db142a914aff8b515eedb9177bd7effaef6d714c41e30bdf152067786078484846040518084600160a060020a0316600160a060020a031681526020018060200180602001838103835285818151815260200191508051906020019080838360005b8381101561129e578181015183820152602001611286565b50505050905090810190601f1680156112cb5780820380516001836020036101000a031916815260200191505b50838103825284518152845160209182019186019080838360005b838110156112fe5781810151838201526020016112e6565b50505050905090810190601f16801561132b5780820380516001836020036101000a031916815260200191505b509550505050505060405180910390a1600280546001019055611505565b60408051608081018252600160a060020a0386168152602081018590529081018390524260608201526006826063811061137f57fe5b8251600491909102919091018054600160a060020a031916600160a060020a0390921691909117815560208083015180516113c092600185019201906115e9565b50604082015180516113dc9160028401916020909101906115e9565b50606082015181600301559050507fe5d18d6612696bff7df1db8015eac613241613297fa2ba2783993e4fd0e76f3d8484846040518084600160a060020a0316600160a060020a031681526020018060200180602001838103835285818151815260200191508051906020019080838360005b8381101561146757818101518382015260200161144f565b50505050905090810190601f1680156114945780820380516001836020036101000a031916815260200191505b50838103825284518152845160209182019186019080838360005b838110156114c75781810151838201526020016114af565b50505050905090810190601f1680156114f45780820380516001836020036101000a031916815260200191505b509550505050505060405180910390a15b50505050565b60056020526000908152604090205481565b828054600181600116156101000203166002900490600052602060002090601f016020900481019282601f106115565780548555611592565b8280016001018555821561159257600052602060002091601f016020900482015b82811115611592578254825591600101919060010190611577565b5061159e929150611657565b5090565b50805460018160011615610100020316600290046000825580601f106115c857506115e6565b601f0160209004906000526020600020908101906115e69190611657565b50565b828054600181600116156101000203166002900490600052602060002090601f016020900481019282601f1061162a57805160ff1916838001178555611592565b82800160010185558215611592579182015b8281111561159257825182559160200191906001019061163c565b610b8591905b8082111561159e576000815560010161165d56fea165627a7a72305820b5c0a405a0a1f49926f8b8f62100870e6738db096c746b77ad5abf3cb94091a7002984ff9f6925f30582668c806da04f9b9acb3650e9a2a8dbeba7213843dde403c143726561746f7220616e64204f776e6572206f6620536d61727420436f6e7472",
  "source": "pragma solidity ^0.5.0;\n\ncontract RBACSC {\n\n    bool public status;\n    address public owner;\n    string public organizationName;\n    uint public numberOfUsers;\n    uint public numberOfEndorsees;\n    mapping (address => uint) public userId;\n    mapping (address => uint) public endorsedUserId;\n    User[99] public users;\n    Endorse[99] public endorsedUsers;\n\n    event UserAdded(address UserAddress, string UserRole, string UserNotes);\n    event UserUpdated(address UserAddress, string UserRole, string UserNotes);\n    event UserRemoved(address UserAddress);\n    event UserEndorsed(address Endorser, address Endorsee);\n    event EndorseeRemoved(address UserAddress);\n    event StatusChanged(string Status);\n\n    struct User {\n        address user;\n        string role;\n        string notes;\n        uint userSince;\n    }\n\n    struct Endorse {\n        address endorser;\n        address endorsee;\n        string notes;\n        uint endorseeSince;\n    }\n\n    modifier onlyOwner {\n        require(msg.sender == owner);\n        _;\n    }\n\n    modifier onlyUsers {\n        require((userId[msg.sender] != 0) || msg.sender == owner);\n        _;\n    }\n\n    constructor (string memory enterOrganizationName) public {\n        owner = msg.sender;\n        status = true;\n        numberOfUsers = 0;\n        addUser(owner, 'Creator and Owner of Smart Contract', 'Only one who can add users');\n        organizationName = enterOrganizationName;\n        numberOfEndorsees = 0;\n        addEndorsee(owner, \"Creator and Owner of Smart Contract\");\n    }\n\n    function addUser(address userAddress, string memory userRole, string memory userNotes) onlyOwner public {\n        require(status = true);\n        uint id = userId[userAddress];\n        if (id == 0) {\n            userId[userAddress] = numberOfUsers;\n            id = numberOfUsers;\n            users[id] = User({user: userAddress, userSince: block.timestamp, role: userRole, notes: userNotes});\n            emit UserAdded(userAddress, userRole, userNotes);\n            numberOfUsers++;\n        }\n        else {\n            users[id] = User({user: userAddress, userSince: block.timestamp, role: userRole, notes: userNotes});\n            emit UserUpdated(userAddress, userRole, userNotes);\n        }\n    }\n\n    function addEndorsee(address endorseeAddress, string memory endorseNotes) onlyUsers public {\n        require(status = true);\n        uint eid = endorsedUserId[endorseeAddress];\n        if (eid == 0) {\n            endorsedUserId[endorseeAddress] = numberOfEndorsees;\n            eid = numberOfEndorsees;\n            endorsedUsers[eid] = Endorse({endorser: msg.sender, endorsee: endorseeAddress, notes: endorseNotes, endorseeSince: block.timestamp});\n            emit UserEndorsed(msg.sender, endorseeAddress);\n            numberOfEndorsees++;\n        }\n        else\n        {\n            endorsedUsers[eid] = Endorse({endorser: msg.sender, endorsee: endorseeAddress, notes: endorseNotes, endorseeSince: block.timestamp});\n            emit UserEndorsed(msg.sender, endorseeAddress);\n        }\n    }\n\n    function removeUser(address userAddress) onlyOwner public {\n        require(status = true);\n        require(userId[userAddress] != 0);\n        address ad;\n        for (uint i = userId[userAddress]; i<numberOfUsers-1; i++){\n            users[i] = users[i+1];\n            ad = users[i].user;\n            userId[ad] = i;\n        }\n        delete users[numberOfUsers-1];\n        emit UserRemoved(userAddress);\n        numberOfUsers--;\n        userId[userAddress] = 0;\n    }\n\n    function removeEndorsee(address endorseeAddress) onlyUsers public {\n        require(status = true);\n        require(endorsedUserId[endorseeAddress] != 0);\n        Endorse storage p = endorsedUsers[endorsedUserId[endorseeAddress]];\n        require(p.endorser==msg.sender);\n        address ead;\n        for (uint i = endorsedUserId[endorseeAddress]; i<numberOfEndorsees-1; i++){\n            endorsedUsers[i] = endorsedUsers[i+1];\n            ead = endorsedUsers[i].endorsee;\n            endorsedUserId[ead] = i;\n        }\n        delete endorsedUsers[numberOfEndorsees-1];\n        emit EndorseeRemoved(endorseeAddress);\n        numberOfEndorsees--;\n        endorsedUserId[endorseeAddress] = 0;\n    }\n\n    function changeStatus (bool deactivate) onlyOwner public {\n        if (deactivate)\n        {status = false;}\n        emit StatusChanged(\"Smart Contract Deactivated\");\n    }\n\n    function getNumberOfUsers() public view returns (uint256) {\n        return numberOfUsers - 1;\n    }\n\n    function getNumberOfEndorsees() public view returns (uint256) {\n        return numberOfEndorsees - 1;\n    }\n}\n",
  "sourcePath": "/Users/jasoncruz/Google Drive/GitHub/RBACSC_FullStack/contracts/RBACSC.sol",
  "compiler": {
    "name": "solc",
    "version": "0.5.0+commit.1d4f565a.Emscripten.clang"
  },
  "schemaVersion": "3.0.1",
  "updatedAt": "2021-05-27T05:51:44.631Z",
  "devdoc": {
    "methods": {}
  },
  "userdoc": {
    "methods": {}
  }
}