{
  "contractName": "RBACSC",
  "abi": [
    {
      "constant": true,
      "inputs": [],
      "name": "indexEndorsee",
      "outputs": [
        {
          "name": "",
          "type": "uint256"
        }
      ],
      "payable": false,
      "stateMutability": "view",
      "type": "function",
      "signature": "0x1f9306a0"
    },
    {
      "constant": true,
      "inputs": [],
      "name": "status",
      "outputs": [
        {
          "name": "",
          "type": "bool"
        }
      ],
      "payable": false,
      "stateMutability": "view",
      "type": "function",
      "signature": "0x200d2ed2"
    },
    {
      "constant": true,
      "inputs": [
        {
          "name": "",
          "type": "address"
        }
      ],
      "name": "endorsees",
      "outputs": [
        {
          "name": "endorser",
          "type": "address"
        },
        {
          "name": "notes",
          "type": "string"
        },
        {
          "name": "endorseeSince",
          "type": "uint256"
        },
        {
          "name": "endorseeIndex",
          "type": "uint256"
        }
      ],
      "payable": false,
      "stateMutability": "view",
      "type": "function",
      "signature": "0x31b3671d"
    },
    {
      "constant": true,
      "inputs": [],
      "name": "indexUser",
      "outputs": [
        {
          "name": "",
          "type": "uint256"
        }
      ],
      "payable": false,
      "stateMutability": "view",
      "type": "function",
      "signature": "0x4a8a2abb"
    },
    {
      "constant": true,
      "inputs": [
        {
          "name": "",
          "type": "uint256"
        }
      ],
      "name": "userAccounts",
      "outputs": [
        {
          "name": "",
          "type": "address"
        }
      ],
      "payable": false,
      "stateMutability": "view",
      "type": "function",
      "signature": "0x616d5058"
    },
    {
      "constant": true,
      "inputs": [
        {
          "name": "",
          "type": "address"
        }
      ],
      "name": "users",
      "outputs": [
        {
          "name": "userRole",
          "type": "string"
        },
        {
          "name": "userNotes",
          "type": "string"
        },
        {
          "name": "userSince",
          "type": "uint256"
        },
        {
          "name": "userIndex",
          "type": "uint256"
        }
      ],
      "payable": false,
      "stateMutability": "view",
      "type": "function",
      "signature": "0xa87430ba"
    },
    {
      "constant": true,
      "inputs": [
        {
          "name": "",
          "type": "uint256"
        }
      ],
      "name": "endorseeAccounts",
      "outputs": [
        {
          "name": "",
          "type": "address"
        }
      ],
      "payable": false,
      "stateMutability": "view",
      "type": "function",
      "signature": "0xe9d4ba9b"
    },
    {
      "inputs": [
        {
          "name": "enterOrganizationName",
          "type": "string"
        }
      ],
      "payable": false,
      "stateMutability": "nonpayable",
      "type": "constructor",
      "signature": "constructor"
    },
    {
      "constant": false,
      "inputs": [
        {
          "name": "_userAddress",
          "type": "address"
        },
        {
          "name": "_userRole",
          "type": "string"
        },
        {
          "name": "_userNotes",
          "type": "string"
        }
      ],
      "name": "addUser",
      "outputs": [],
      "payable": false,
      "stateMutability": "nonpayable",
      "type": "function",
      "signature": "0xd7554a68"
    },
    {
      "constant": false,
      "inputs": [
        {
          "name": "_userAddress",
          "type": "address"
        }
      ],
      "name": "removeUser",
      "outputs": [],
      "payable": false,
      "stateMutability": "nonpayable",
      "type": "function",
      "signature": "0x98575188"
    },
    {
      "constant": false,
      "inputs": [
        {
          "name": "_endorseeAddress",
          "type": "address"
        },
        {
          "name": "_endorseeNotes",
          "type": "string"
        }
      ],
      "name": "addEndorsee",
      "outputs": [],
      "payable": false,
      "stateMutability": "nonpayable",
      "type": "function",
      "signature": "0x546c9eae"
    },
    {
      "constant": false,
      "inputs": [
        {
          "name": "_endorseeAddress",
          "type": "address"
        }
      ],
      "name": "removeEndorsee",
      "outputs": [],
      "payable": false,
      "stateMutability": "nonpayable",
      "type": "function",
      "signature": "0x32b7e70e"
    },
    {
      "constant": false,
      "inputs": [
        {
          "name": "_status",
          "type": "bool"
        }
      ],
      "name": "changeStatus",
      "outputs": [],
      "payable": false,
      "stateMutability": "nonpayable",
      "type": "function",
      "signature": "0x9b3de49b"
    },
    {
      "constant": true,
      "inputs": [],
      "name": "getOwner",
      "outputs": [
        {
          "name": "ownerAddress",
          "type": "address"
        },
        {
          "name": "organizationName",
          "type": "string"
        },
        {
          "name": "dateCreated",
          "type": "uint256"
        }
      ],
      "payable": false,
      "stateMutability": "view",
      "type": "function",
      "signature": "0x893d20e8"
    },
    {
      "constant": true,
      "inputs": [],
      "name": "getUsers",
      "outputs": [
        {
          "name": "",
          "type": "address[]"
        }
      ],
      "payable": false,
      "stateMutability": "view",
      "type": "function",
      "signature": "0x00ce8e3e"
    },
    {
      "constant": true,
      "inputs": [],
      "name": "getEndorsees",
      "outputs": [
        {
          "name": "",
          "type": "address[]"
        }
      ],
      "payable": false,
      "stateMutability": "view",
      "type": "function",
      "signature": "0x88e2eed5"
    },
    {
      "constant": true,
      "inputs": [],
      "name": "getNoOfUsers",
      "outputs": [
        {
          "name": "",
          "type": "uint256"
        }
      ],
      "payable": false,
      "stateMutability": "view",
      "type": "function",
      "signature": "0x34f5138e"
    },
    {
      "constant": true,
      "inputs": [],
      "name": "getNoOfEndorsees",
      "outputs": [
        {
          "name": "",
          "type": "uint256"
        }
      ],
      "payable": false,
      "stateMutability": "view",
      "type": "function",
      "signature": "0x5f6e2164"
    }
  ],
  "bytecode": "0x60806040523480156200001157600080fd5b506040516200192638038062001926833981018060405260208110156200003757600080fd5b8101908080516401000000008111156200005057600080fd5b820160208101848111156200006457600080fd5b81516401000000008111828201871017156200007f57600080fd5b505060048054600160a060020a031916331790558051909350620000ad9250600591506020840190620000d0565b505042600655600060078190556008556009805460ff1916600117905562000175565b828054600181600116156101000203166002900490600052602060002090601f016020900481019282601f106200011357805160ff191683800117855562000143565b8280016001018555821562000143579182015b828111156200014357825182559160200191906001019062000126565b506200015192915062000155565b5090565b6200017291905b808211156200015157600081556001016200015c565b90565b6117a180620001856000396000f3fe6080604052600436106100ef5763ffffffff7c0100000000000000000000000000000000000000000000000000000000600035041662ce8e3e81146100f45780631f9306a014610159578063200d2ed21461018057806331b3671d146101a957806332b7e70e1461027b57806334f5138e146102b05780634a8a2abb146102c5578063546c9eae146102da5780635f6e21641461039d578063616d5058146103b257806388e2eed5146103f8578063893d20e81461040d57806398575188146104b05780639b3de49b146104e3578063a87430ba1461050f578063d7554a681461062e578063e9d4ba9b14610778575b600080fd5b34801561010057600080fd5b506101096107a2565b60408051602080825283518183015283519192839290830191858101910280838360005b8381101561014557818101518382015260200161012d565b505050509050019250505060405180910390f35b34801561016557600080fd5b5061016e610805565b60408051918252519081900360200190f35b34801561018c57600080fd5b5061019561080b565b604080519115158252519081900360200190f35b3480156101b557600080fd5b506101dc600480360360208110156101cc57600080fd5b5035600160a060020a0316610814565b6040518085600160a060020a0316600160a060020a0316815260200180602001848152602001838152602001828103825285818151815260200191508051906020019080838360005b8381101561023d578181015183820152602001610225565b50505050905090810190601f16801561026a5780820380516001836020036101000a031916815260200191505b509550505050505060405180910390f35b34801561028757600080fd5b506102ae6004803603602081101561029e57600080fd5b5035600160a060020a03166108d1565b005b3480156102bc57600080fd5b5061016e610c50565b3480156102d157600080fd5b5061016e610c56565b3480156102e657600080fd5b506102ae600480360360408110156102fd57600080fd5b600160a060020a03823516919081019060408101602082013564010000000081111561032857600080fd5b82018360208201111561033a57600080fd5b8035906020019184600183028401116401000000008311171561035c57600080fd5b91908080601f016020809104026020016040519081016040528093929190818152602001838380828437600092019190915250929550610c5c945050505050565b3480156103a957600080fd5b5061016e610e83565b3480156103be57600080fd5b506103dc600480360360208110156103d557600080fd5b5035610e89565b60408051600160a060020a039092168252519081900360200190f35b34801561040457600080fd5b50610109610eb1565b34801561041957600080fd5b50610422610f11565b60408051600160a060020a0385168152908101829052606060208083018281528551928401929092528451608084019186019080838360005b8381101561047357818101518382015260200161045b565b50505050905090810190601f1680156104a05780820380516001836020036101000a031916815260200191505b5094505050505060405180910390f35b3480156104bc57600080fd5b506102ae600480360360208110156104d357600080fd5b5035600160a060020a0316610fc9565b3480156104ef57600080fd5b506102ae6004803603602081101561050657600080fd5b503515156112a7565b34801561051b57600080fd5b506105426004803603602081101561053257600080fd5b5035600160a060020a0316611342565b604051808060200180602001858152602001848152602001838103835287818151815260200191508051906020019080838360005b8381101561058f578181015183820152602001610577565b50505050905090810190601f1680156105bc5780820380516001836020036101000a031916815260200191505b50838103825286518152865160209182019188019080838360005b838110156105ef5781810151838201526020016105d7565b50505050905090810190601f16801561061c5780820380516001836020036101000a031916815260200191505b50965050505050505060405180910390f35b34801561063a57600080fd5b506102ae6004803603606081101561065157600080fd5b600160a060020a03823516919081019060408101602082013564010000000081111561067c57600080fd5b82018360208201111561068e57600080fd5b803590602001918460018302840111640100000000831117156106b057600080fd5b91908080601f016020809104026020016040519081016040528093929190818152602001838380828437600092019190915250929594936020810193503591505064010000000081111561070357600080fd5b82018360208201111561071557600080fd5b8035906020019184600183028401116401000000008311171561073757600080fd5b91908080601f016020809104026020016040519081016040528093929190818152602001838380828437600092019190915250929550611449945050505050565b34801561078457600080fd5b506103dc6004803603602081101561079b57600080fd5b5035611668565b606060018054806020026020016040519081016040528092919081815260200182805480156107fa57602002820191906000526020600020905b8154600160a060020a031681526001909101906020018083116107dc575b505050505090505b90565b60085481565b60095460ff1681565b6002602081815260009283526040928390208054600180830180548751601f60001994831615610100029490940190911696909604918201859004850286018501909652808552600160a060020a03909116949193928301828280156108bb5780601f10610890576101008083540402835291602001916108bb565b820191906000526020600020905b81548152906001019060200180831161089e57829003601f168201915b5050505050908060020154908060030154905084565b336000908152602081905260409020600201541515610960576040805160e560020a62461bcd02815260206004820152602e60248201527f4f6e6c7920726567697374657265642075736572732063616e206164642f726560448201527f6d6f766520656e646f7273656573000000000000000000000000000000000000606482015290519081900360840190fd5b60095460ff1615156001146109ad576040805160e560020a62461bcd02815260206004820152601c6024820152600080516020611756833981519152604482015290519081900360640190fd5b600160a060020a038116600090815260026020819052604090912001541515610a20576040805160e560020a62461bcd02815260206004820152601760248201527f456e646f7273656520646f6573206e6f74206578697374000000000000000000604482015290519081900360640190fd5b600160a060020a03818116600090815260026020526040902054163314610ab7576040805160e560020a62461bcd02815260206004820152602860248201527f4f6e6c792074686520656e646f727365722063616e2072656d6f766520616e2060448201527f656e646f72736565000000000000000000000000000000000000000000000000606482015290519081900360840190fd5b600160a060020a038116600090815260026020526040902060039081015481548110610adf57fe5b60009182526020909120018054600160a060020a0319169055600380546000198101908110610b0a57fe5b6000918252602080832090910154600160a060020a038481168452600290925260409092206003908101548154929093169290918110610b4657fe5b60009182526020808320919091018054600160a060020a031916600160a060020a039485161790559183168152600291829052604081206003908101548154929392849291908110610b9457fe5b6000918252602080832090910154600160a060020a03908116845283820194909452604092830182209386168252600290522060039081015481830155805491925090801515610be057fe5b6000828152602080822083016000199081018054600160a060020a03199081169091559301909355600160a060020a03851681526002909252604082208054909116815590610c326001830182611676565b50600060028201819055600390910155505060088054600019019055565b60015490565b60075481565b336000908152602081905260409020600201541515610ceb576040805160e560020a62461bcd02815260206004820152602e60248201527f4f6e6c7920726567697374657265642075736572732063616e206164642f726560448201527f6d6f766520656e646f7273656573000000000000000000000000000000000000606482015290519081900360840190fd5b60095460ff161515600114610d38576040805160e560020a62461bcd02815260206004820152601c6024820152600080516020611756833981519152604482015290519081900360640190fd5b600160a060020a0382166000908152600260208190526040909120015415610daa576040805160e560020a62461bcd02815260206004820152601760248201527f456e646f7273656520616c726561647920657869737473000000000000000000604482015290519081900360640190fd5b60408051608081018252338152602080820184815242838501526008546060840152600160a060020a038681166000908152600284529490942083518154600160a060020a0319169516949094178455518051929392610e1092600185019201906116bd565b50604082015160028201556060909101516003918201558054600180820183556000929092527fc2575a0e9e593c00f959f8c92f12db2869c3395a3b0502d05e2516446f71f85b018054600160a060020a031916600160a060020a03949094169390931790925550600880549091019055565b60035490565b6001805482908110610e9757fe5b600091825260209091200154600160a060020a0316905081565b606060038054806020026020016040519081016040528092919081815260200182805480156107fa57602002820191906000526020600020908154600160a060020a031681526001909101906020018083116107dc575050505050905090565b60045460065460058054604080516020601f600260001960018716156101000201909516949094049384018190048102820181019092528281526000956060958795600160a060020a039092169491939092918491830182828015610fb75780601f10610f8c57610100808354040283529160200191610fb7565b820191906000526020600020905b815481529060010190602001808311610f9a57829003601f168201915b50505050509150925092509250909192565b600454600160a060020a03163314611051576040805160e560020a62461bcd02815260206004820152602e60248201527f4f6e6c7920746865206f776e6572206f6620736d61727420636f6e747261637460448201527f2063616e20616464207573657273000000000000000000000000000000000000606482015290519081900360840190fd5b60095460ff16151560011461109e576040805160e560020a62461bcd02815260206004820152601c6024820152600080516020611756833981519152604482015290519081900360640190fd5b600160a060020a0381166000908152602081905260409020600201541515611110576040805160e560020a62461bcd02815260206004820152601360248201527f5573657220646f6573206e6f7420657869737400000000000000000000000000604482015290519081900360640190fd5b600160a060020a03811660009081526020819052604090206003015460018054909190811061113b57fe5b60009182526020909120018054600160a060020a031916905560018054600019810190811061116657fe5b6000918252602080832090910154600160a060020a038481168452918390526040909220600301546001805492909316929181106111a057fe5b60009182526020808320919091018054600160a060020a031916600160a060020a03948516179055918316815290819052604081206003015460018054839283929181106111ea57fe5b6000918252602080832090910154600160a060020a039081168452838201949094526040928301822093861682528190522060039081015490820155600180549192509080151561123757fe5b6000828152602080822083016000199081018054600160a060020a0319169055909201909255600160a060020a0384168252819052604081209061127b8282611676565b611289600183016000611676565b50600060028201819055600390910155505060078054600019019055565b600454600160a060020a0316331461132f576040805160e560020a62461bcd02815260206004820152602e60248201527f4f6e6c7920746865206f776e6572206f6620736d61727420636f6e747261637460448201527f2063616e20616464207573657273000000000000000000000000000000000000606482015290519081900360840190fd5b6009805460ff1916911515919091179055565b6000602081815291815260409081902080548251601f6002600019610100600186161502019093169290920491820185900485028101850190935280835290928391908301828280156113d65780601f106113ab576101008083540402835291602001916113d6565b820191906000526020600020905b8154815290600101906020018083116113b957829003601f168201915b505050505090806001018054600181600116156101000203166002900480601f0160208091040260200160405190810160405280929190818152602001828054600181600116156101000203166002900480156108bb5780601f10610890576101008083540402835291602001916108bb565b600454600160a060020a031633146114d1576040805160e560020a62461bcd02815260206004820152602e60248201527f4f6e6c7920746865206f776e6572206f6620736d61727420636f6e747261637460448201527f2063616e20616464207573657273000000000000000000000000000000000000606482015290519081900360840190fd5b60095460ff16151560011461151e576040805160e560020a62461bcd02815260206004820152601c6024820152600080516020611756833981519152604482015290519081900360640190fd5b600160a060020a0383166000908152602081905260409020600201541561158f576040805160e560020a62461bcd02815260206004820152601360248201527f5573657220616c72656164792065786973747300000000000000000000000000604482015290519081900360640190fd5b60408051608081018252838152602080820184905242828401526007546060830152600160a060020a03861660009081528082529290922081518051929391926115dc92849201906116bd565b5060208281015180516115f592600185019201906116bd565b5060408201516002820155606090910151600390910155505060018054808201825560008290527fb10e2d527612073b26eecdfd717e6a320cf44b4afac2b0732d9fcbe2b7fa0cf6018054600160a060020a031916600160a060020a039390931692909217909155600780549091019055565b6003805482908110610e9757fe5b50805460018160011615610100020316600290046000825580601f1061169c57506116ba565b601f0160209004906000526020600020908101906116ba919061173b565b50565b828054600181600116156101000203166002900490600052602060002090601f016020900481019282601f106116fe57805160ff191683800117855561172b565b8280016001018555821561172b579182015b8281111561172b578251825591602001919060010190611710565b5061173792915061173b565b5090565b61080291905b80821115611737576000815560010161174156fe536d61727420636f6e7472616374206973206e6f742061637469766500000000a165627a7a72305820f6c7d4cf7ba3e85a8d9b47d008f7ee71a18f23594653b93665e57b82f055cf520029",
  "source": "pragma solidity ^0.5.0;\n\ncontract RBACSC {\n\n    mapping (address => User) public users;\n    address[] public userAccounts;\n    mapping (address => Endorse) public endorsees;\n    address[] public endorseeAccounts;\n    Owner owner;\n    uint public indexUser;\n    uint public indexEndorsee;\n    bool public status;\n\n    constructor (string memory enterOrganizationName) public {\n        owner.ownerAddress = msg.sender;\n        owner.organizationName = enterOrganizationName;\n        owner.dateCreated = block.timestamp;\n        indexUser = 0;\n        indexEndorsee = 0;\n        status = true;\n  //      addUser(0xAb8483F64d9C6d1EcF9b849Ae677dD3315835cb2, \"a\", \"b\");\n  //      addUser(0x4B20993Bc481177ec7E8f571ceCaE8A9e22C02db, \"d\", \"c\");\n    }\n\n    struct Owner {\n        address ownerAddress;\n        string organizationName;\n        uint dateCreated;\n    }\n\n    struct User {\n        string userRole;\n        string userNotes;\n        uint userSince;\n        uint userIndex;\n    }\n\n    struct Endorse {\n        address endorser;\n        string notes;\n        uint endorseeSince;\n        uint endorseeIndex;\n    }\n\n    modifier onlyOwner {\n        require(msg.sender == owner.ownerAddress, \"Only the owner of smart contract can add users\");\n        _;\n    }\n\n    modifier onlyUsers {\n        require(users[msg.sender].userSince != 0, \"Only registered users can add/remove endorsees\");\n        _;\n    }\n\n    modifier contractActive {\n        require(status == true, \"Smart contract is not active\");\n        _;\n    }\n\n    //0xAb8483F64d9C6d1EcF9b849Ae677dD3315835cb2\n    //0x4B20993Bc481177ec7E8f571ceCaE8A9e22C02db\n    function addUser(address _userAddress, string memory _userRole, string memory _userNotes) onlyOwner contractActive public {\n\n        //  option 1\n        //  User storage user = users[_userAddress];\n        //  user.userAddress = _userAddress;\n        //  user.userRole = _userRole;\n        //  user.userNotes = _userNotes;\n        //  user.userSince = block.timestamp;\n\n        //  short way\n        //  users[_userAddress] = User(__userRoleage, _userNotes, block.timestamp);\n\n        //readable way\n        require(users[_userAddress].userSince == 0, \"User already exists\");\n        users[_userAddress] = User(\n            {\n                userRole: _userRole,\n                userNotes: _userNotes,\n                userSince: block.timestamp,\n                userIndex: indexUser\n            });\n            userAccounts.push(_userAddress) -1;\n            indexUser++;\n    }\n\n    function removeUser(address _userAddress) onlyOwner contractActive public {\n        require(users[_userAddress].userSince != 0, \"User does not exist\");\n        delete userAccounts[users[_userAddress].userIndex]; //delete address from userAccounts\n        userAccounts[users[_userAddress].userIndex] = userAccounts[userAccounts.length - 1]; //copy last item to the just deleted address\n        User storage user = users[userAccounts[users[_userAddress].userIndex]]; //\n        user.userIndex = users[_userAddress].userIndex; //update the userIndex of the corresponding User struct of moved item\n        userAccounts.pop(); //remove the last item (same as the moved one)\n        delete users[_userAddress]; //delete user from mapping\n        indexUser--;\n    }\n\n    //0x78731D3Ca6b7E34aC0F824c42a7cC18A495cabaB\n    // 0x617F2E2fD72FD9D5503197092aC168c91465E7f2\n    function addEndorsee(address _endorseeAddress, string memory _endorseeNotes) onlyUsers contractActive public {\n        require(endorsees[_endorseeAddress].endorseeSince == 0, \"Endorsee already exists\");\n        endorsees[_endorseeAddress] = Endorse(\n            {\n                endorser: msg.sender,\n                notes: _endorseeNotes,\n                endorseeSince: block.timestamp,\n                endorseeIndex: indexEndorsee\n            });\n            endorseeAccounts.push(_endorseeAddress) -1;\n            indexEndorsee++;\n    }\n\n    function removeEndorsee(address _endorseeAddress) onlyUsers contractActive public {\n        require(endorsees[_endorseeAddress].endorseeSince != 0, \"Endorsee does not exist\");\n        require(endorsees[_endorseeAddress].endorser == msg.sender, \"Only the endorser can remove an endorsee\");\n        delete endorseeAccounts[endorsees[_endorseeAddress].endorseeIndex]; //delete address from userAccounts\n        endorseeAccounts[endorsees[_endorseeAddress].endorseeIndex] = endorseeAccounts[endorseeAccounts.length - 1]; //copy last item to the just deleted address\n        Endorse storage endorsee = endorsees[endorseeAccounts[endorsees[_endorseeAddress].endorseeIndex]]; //\n        endorsee.endorseeIndex = endorsees[_endorseeAddress].endorseeIndex; //update the userIndex of the corresponding User struct of moved item\n        endorseeAccounts.pop(); //remove the last item (same as the moved one)\n        delete endorsees[_endorseeAddress]; //delete user from mapping\n        indexEndorsee--;\n    }\n\n    function changeStatus(bool _status) onlyOwner public {\n       status = _status;\n    }\n    function getOwner() public view returns (address ownerAddress, string memory organizationName, uint dateCreated){\n        return(owner.ownerAddress, owner.organizationName, owner.dateCreated);\n    }\n\n    function getUsers() public view returns (address[] memory){\n        return userAccounts;\n    }\n\n    function getEndorsees() public view returns (address[] memory){\n        return endorseeAccounts;\n    }\n\n    function getNoOfUsers() public view returns (uint){\n        return userAccounts.length;\n    }\n\n    function getNoOfEndorsees() public view returns (uint){\n        return endorseeAccounts.length;\n    }\n\n    //same as built-in getter\n    // function getUser(address _address) public view returns (string memory userRole, string memory userNotes, uint userSince, uint index){\n    //      return(users[_address].userRole, users[_address].userNotes, users[_address].userSince, users[_address].userIndex);\n    // }\n}\n",
  "sourcePath": "/Users/jasoncruz/Google Drive/GitHub/RBACSC_FullStack/contracts/RBACSC.sol",
  "compiler": {
    "name": "solc",
    "version": "0.5.0+commit.1d4f565a.Emscripten.clang"
  },
  "schemaVersion": "3.0.1",
  "updatedAt": "2021-05-27T07:36:10.834Z",
  "devdoc": {
    "methods": {}
  },
  "userdoc": {
    "methods": {}
  }
}